:100000000040002085000100D7000100ED00010044
:1000100000000000000000000000000000000000E0
:10002000000000000000000000000000D7000100F8
:100030000000000000000000D7000100D700010010
:10004000D7000100D7000100D7000100D700010050
:10005000D700010000000000D7000100D700010018
:10006000D7000100D7000100D7000100D700010030
:10007000D7000100D7000100D7000100D700010020
:10008000D7000100D7000100D7000100D700010010
:10009000D7000100D7000100D7000100D700010000
:0800A000D7000100D7000100A8
:1000A80080B584B00A4603460290039102980399EA
:1000B8000192009300F014FAFFE704B080BD80B508
:1000C80084B00A460346029003910298039901926C
:1000D800009300F052F9FFE704B080BD80B584B00A
:1000E8000A460346029003910298039901920093ED
:1000F80000F0C7F8FFE704B080BD80B584B00A46B9
:10010800034602900391029803990192009300F02C
:1001180025FAFFE704B080BD80B584B00A460346DF
:1001280002900391029803990192009300F060F8FD
:10013800FFE704B080BD80B584B00A46034602904C
:100148000391029803990192009300F08BF9FFE75D
:1001580004B080BD80B584B00A460346029003917E
:10016800029803990192009300F0C9F8FFE704B0E0
:1001780080BD80B584B00A46034602900391029878
:1001880003990192009300F003F8FFE704B080BDE3
:1001980080B58AB00A4603460490059103920293FB
:1001A800FFE70498006801F0E4FA0190FFE705987A
:1001B800017801980CF04CFE07A90870FFE707A822
:1001C8000078C107002900900FD0FFE700980128A8
:1001D80002D009E00AE0E4E700200028FAD1FFE7AE
:1001E80001200028F7D1FFE7FEDEFFE70AB080BD57
:1001F80080B58CB00A460346049005910392029399
:10020800FFE70498006801F019FA09910890FFE7E0
:1002180008A801F0AEFA0190FFE705980178019867
:100228000CF016FE07A90870FFE707A80078C107B9
:100238000029009012D0FFE70098012805D00CE0B3
:100248000DE008A801F085FB0FE000200028F7D199
:10025800FFE701200028F4D1FFE7FEDEFFE708A84A
:1002680001F077FBFFE70CB080BDCAE780B582B02C
:10027800014601906420009106F07EFBFFE702B082
:1002880080BD80B58CB00A46034604900591039260
:100298000293FFE70498006801F0D0F909910890EB
:1002A800FFE708A801F065FA0190FFE705980178D3
:1002B80001980CF0CDFD07A90870FFE707A80078A2
:1002C800C1070029009012D0FFE70098012805D047
:1002D8000CE00DE008A801F03CFB0FE0002000282E
:1002E800F7D1FFE701200028F4D1FFE7FEDEFFE7A2
:1002F80008A801F02EFBFFE70CB080BDCAE780B567
:100308008CB00A4603460490059103920293FFE7D6
:100318000498006801F092F909910890FFE708A88D
:1003280001F027FA0190FFE70598017801980CF091
:100338008FFD07A90870FFE707A80078C107002903
:10034800009012D0FFE70098012805D00CE00DE0DE
:1003580008A801F0FEFA0FE000200028F7D1FFE717
:1003680001200028F4D1FFE7FEDEFFE708A801F02E
:10037800F0FAFFE70CB080BDCAE780B58CB00A463A
:1003880003460490059103920293FFE704980068DE
:1003980001F054F909910890FFE708A801F0E9F97C
:1003A8000190FFE70598017801980CF051FD07A925
:1003B8000870FFE707A80078C1070029009012D04D
:1003C800FFE70098012805D00CE00DE008A801F02F
:1003D800C0FA0FE000200028F7D1FFE7012000282D
:1003E800F4D1FFE7FEDEFFE708A801F0B2FAFFE765
:1003F8000CB080BDCAE7D4D480B586B00A4603469F
:10040800039004910498032802920193009013D852
:100418000098C04678440079400087440104070AE0
:100428000E4805900BE00C48059008E00948059037
:1004380005E00748059002E009480590FFE70398A2
:10044800006805990BF092FDFFE706B080BDC04635
:10045800F0330000F0310000F03000007030000090
:10046800F037000080B58CB00A4603460490059129
:1004780003920293FFE70498006801F0DFF80991FE
:100488000890FFE708A801F074F90190FFE70598C4
:10049800017801980CF0DCFC07A90870FFE707A8B1
:1004A8000078C1070029009012D0FFE700980128C2
:1004B80005D00CE00DE008A801F04BFA0FE0002091
:1004C8000028F7D1FFE701200028F4D1FFE7FEDE7E
:1004D800FFE708A801F03DFAFFE70CB080BDCAE7C6
:1004E80080B58CB00A4603460490059103920293A6
:1004F800FFE70498006801F0A1F809910890FFE768
:1005080008A801F036F90190FFE7059801780198ED
:100518000CF09EFC07A90870FFE707A80078C10740
:100528000029009012D0FFE70098012805D00CE0C0
:100538000DE008A801F00DFA0FE000200028F7D11F
:10054800FFE701200028F4D1FFE7FEDEFFE708A857
:1005580001F0FFF9FFE70CB080BDCAE780B58CB0A9
:100568000A4603460490059103920293FFE7049814
:10057800006801F063F809910890FFE708A801F006
:10058800F8F80190FFE70598017801980CF060FCF5
:1005980007A90870FFE707A80078C107002900909D
:1005A80012D0FFE70098012805D00CE00DE008A85C
:1005B80001F0CFF90FE000200028F7D1FFE7012074
:1005C8000028F4D1FFE7FEDEFFE708A801F0C1F933
:1005D800FFE70CB080BDCAE780B586B0014603903E
:1005E8000398029100F0E2FF0190FFE701980028CC
:1005F80006D1FFE703980021C94300F0F4FF05E0A6
:1006080000200490FFE7049806B080BD0398059089
:1006180005980490F7E780B584B0014602900298E7
:100628000068019100F0C2FF0390FFE7029800689C
:100638000399491C00F0D7FFFFE704B080BD80B5DF
:1006480086B00146039003980590059802910FF033
:100658001FFC0FF024FC0190FFE701980490049818
:1006680006B080BD80B584B0014602900298019121
:1006780001F087F8FFE704B080BD80B586B0014679
:10068800039003980590059802910FF001FC0FF074
:1006980006FC0190FFE701980490049806B080BD1D
:1006A800F0B58FB01C4615460E46074608900991CE
:1006B8000A920B930898414202464A41002807943F
:1006C800069505960497039205D1FFE7039801283C
:1006D8000DD0FFE7FEDE089809990C900D910C9853
:1006E8000D99089A002A0290019105D108E00A980C
:1006F8000B9900F06FF8FEDE029801990FB0F0BD7B
:10070800FAE770B58CB00A460BAB00241C700AAD32
:100718002C7009AE347001242C701C703470097868
:10072800CB07002B03920290019105D0FFE70198B7
:10073800012810D0FFE7FEDE0BA800210170039806
:100748004268836805920693059A069B029C62603C
:10075800A360217011E00AA8002101700398427873
:1007680007AB1A7009AA1170079908AA11701078B6
:1007780001F0A4F8C0B2009005E009A80078C0070D
:1007880000280CD105E000980299487001220A70EF
:10079800F3E703980178C907002906D00FE009A8F4
:1007A80000210170F5E70CB070BD0BA80078C007F8
:1007B8000028F8D0FFE70BA800210170F3E70AA88A
:1007C8000078C0070028EED0FFE70AA800210170D2
:1007D800E9E7D4D498B00A4603460790089107A8D9
:1007E800149009A8159014981690159817901698B3
:1007F8001249069205930EF00BFB04900391FFE754
:1008080017980F4900F0E4F802900191FFE7049867
:10081800109003991191029A1292019B13936C46BE
:100828000225256007490AA810AB2A4602F064FA97
:10083800FFE705490AA80FF0B7FDFEDEAFEC0000A0
:1008480091010100641B01008C1B010010B583B0ED
:100858000A46034602AC21700299417001210170D9
:100868000192009303B010BD10B583B00A46034649
:1008780002AC21700299417001210170019200932C
:1008880003B010BD10B583B00A46034602AC217010
:1008980002994170012101700192009303B010BDCB
:1008A80083B0014601AA1070019802AA5070012075
:1008B8001070107852780091114603B0704710B547
:1008C80082B00A4603468C6884604C6844600968B4
:1008D80001600192009302B010BD82B0014601AAE6
:1008E80010700198009102B0704782B0014601AAC9
:1008F80010700198009102B0704710B583B00A4695
:10090800034602AC207061702078617801920093F0
:1009180003B010BD10B583B00A46034602AC207080
:100928006170207861780192009303B010BD10B512
:1009380082B00A4603464C68446009680160019227
:10094800009302B010BD10B582B00A460346CC68C9
:10095800C4608C6884604C684460096801600192D6
:10096800009302B010BD81B000200090009801B043
:10097800704784B00A46034602900391039802998F
:10098800086002980192009304B0704700487047CD
:100998001400002085B0EFF31080049004980390B1
:1009A80003980190FFE70120019901400091FFE7BA
:1009B8000098012804D1FFE702A80121017003E093
:1009C80002A800210170FFE702A8007805B070476F
:1009D8008AB00A460346049005910598089008983D
:1009E800039202930190FFE70498099009980090F8
:1009F800FFE70098069001990791069807990AB0B1
:100A0800704780B588B00146039007A8002202709D
:100A18000398821C0291114600F0C2FF0190FFE783
:100A28000198C10700290BD0FFE7039807A9012205
:100A38000A70114600F011FF05AA5180108003E0EA
:100A480004A80021018021E005A80088012804D01D
:100A5800FFE704A80021018013E007A80021017026
:100A680005A8408806A908800398009008460099C0
:100A780005F0A7FFFFE7069804A948800120088031
:100A8800FFE705A80088012809D012E004A84188DA
:100A9800049808B080BD07A800210170F6E707A8F0
:100AA8000078C0070028F6D0FFE707A800210170EA
:100AB800F1E7F0E710B583B00A46034602AC2080A0
:100AC8006180618802980192009303B010BD85B0DF
:100AD8000A460346039004910398049901920093EF
:100AE80005B0704782B001460190019800680091F6
:100AF80002B0704781B000200090009801B07047A4
:100B080080B582B002F01AF90090FFE70120009941
:100B18000140084602B080BD80B584B0014602900D
:100B28000A480078C0070028009104D0FFE703A80E
:100B38000021017006E00DF063FCFFE703A8012126
:100B48000170FFE703A8007804B080BD1000002002
:100B580080B588B00A46034606900791069807991B
:100B68000592049300F04BFE03900291FFE70548BD
:100B78000399029A0DF06DFE0190FFE7019808B005
:100B880080BDC04600000020B0B58AB013460C46B0
:100B9800054607900891099207990898099A0691BD
:100BA800114605930494039500F029FE02900191E3
:100BB800FFE704480699029A019B0DF08FFEFFE7B4
:100BC8000AB0B0BD00000020F0B58DB01C46154637
:100BD8000E46074609900A910B920C9309990A98B8
:100BE8000B9A08911146079406950596049700F00C
:100BF80006FE03900291FFE70C98694608600548D5
:100C08000899039A029B00F07FF80190FFE701988A
:100C18000DB0F0BD0000002080B588B00A4603463C
:100C280006900791069807990592049300F0E7FD4E
:100C380003900291FFE705480399029A00F03AF8F9
:100C48000190FFE7019808B080BDC0460000002071
:100C580080B586B0014603900398059005980291E7
:100C68000FF016F90FF01BF90190FFE701980490B7
:100C7800049806B080BD62B6704772B6704781B0FE
:100C880000200090009801B0704784B00A460346DF
:100C980002900391039802990860029801920093C8
:100CA80004B0704782B00146019001980068009135
:100CB80002B07047B0B58AB013460C460546059099
:100CC8000691079206A804930394029500F0AFFDDD
:100CD8000890FFE705980699079A0DF0BAFD099064
:100CE800FFE709980EF07EFA0190FFE70198C10727
:100CF800002906D1FFE70998089910F085FEFFE75B
:100D0800FFE709980AB0B0BDF0B595B01A9C1D462A
:100D180016460F460D900C900D980E900F9110925C
:100D280011931A9810A90B9008460A9409950896E9
:100D3800079700F084FD0690FFE70B98069900F0EE
:100D48005EFD13911290FFE70E981299139A0DF019
:100D580080FD1490FFE714980EF044FA0590FFE721
:100D68000598C10700291FD1FFE70F99149810AA09
:100D780004901046039100F05AFD0290FFE71A997B
:100D880002980AF045FE0190FFE704980399019A3A
:100D980010F02AFE0090FFE70E980F99109A119B09
:100DA8000DF09CFDFFE7FFE7149815B0F0BD80B586
:100DB80084B00146039003981322029111460AF069
:100DC80087FC01900091FFE70198009904B080BD6D
:100DD80080B584B00146039003980E220291114613
:100DE8000AF076FC01900091FFE70198009904B0A1
:100DF80080BD80B584B00146039003980222029119
:100E080011460AF065FC01900091FFE701980099EE
:100E180004B080BD80B584B00146039003981122C8
:100E2800029111460AF054FC01900091FFE70198E5
:100E3800009904B080BD80B584B001460390039842
:100E48001522029111460AF043FC01900091FFE738
:100E58000198009904B080BD80B584B00146039024
:100E680003981422029111460AF032FC0190009175
:100E7800FFE70198009904B080BD80B588B00146AD
:100E880002900191FFF76FFD0490FFE704A8059019
:100E9800059802F033FB0090FFE70298049906904A
:100EA800079106980EF0F4FF07990FF06DF8FFE729
:100EB80008B080BD80B588B0014602900191FFF767
:100EC80052FD0490FFE704A80590059802F05EFB28
:100ED8000090FFE7029804990690079106980EF093
:100EE800D7FF07990FF050F8FFE708B080BD80B52D
:100EF80088B0014602900191FFF7C1FE0490FFE718
:100F080004A80590059802F01CFB0090FFE70298E2
:100F180004990690079106980EF0BAFF07990FF00A
:100F280033F8FFE708B080BD80B588B0014602906D
:100F38000191FFF7A4FE0490FFE704A80590059827
:100F480002F047FB0090FFE702980499069007918A
:100F580006980EF09DFF07990FF016F8FFE708B006
:100F680080BD80B588B001460290019101F047FC30
:100F78000490FFE704A80590059802F09BFB0090F9
:100F8800FFE7029804990690079106980EF080FFF3
:100F980007990EF0F9FFFFE708B080BD80B588B06B
:100FA80001460290019101F02AFC0490FFE704A891
:100FB8000590059803F004F80090FFE7029804995B
:100FC8000690079106980EF063FF07990EF0DCFF74
:100FD800FFE708B080BD80B588B001460290019156
:100FE80001F00DFC0490FFE704A80590059802F0B5
:100FF8002FFD0090FFE70298049906900791069844
:101008000EF046FF07990EF0BFFFFFE708B080BD5E
:1010180080B588B001460290019101F0F0FB049080
:10102800FFE704A80590059803F0FEF80090FFE795
:10103800029804990690079106980EF029FF0799DF
:101048000EF0A2FFFFE708B080BD80B588B001466A
:101058000290019101F0D3FB0490FFE704A80590EA
:10106800059802F077FE0090FFE702980499069031
:10107800079106980EF00CFF07990EF085FFFFE721
:1010880008B080BD80B588B001460290019101F09A
:10109800B6FB0490FFE704A80590059802F0C0FD90
:1010A8000090FFE7029804990690079106980EF0C1
:1010B800EFFE07990EF068FFFFE708B080BD80B526
:1010C80088B001460290019101F099FB0490FFE776
:1010D80004A80590059802F0BFFF0090FFE702986A
:1010E80004990690079106980EF0D2FE07990EF023
:1010F8004BFFFFE708B080BD80B588B0014602907D
:10110800019101F07CFB0490FFE704A80590059885
:1011180002F052FC0090FFE70298049906900791AC
:1011280006980EF0B5FE07990EF02EFFFFE708B0FF
:1011380080BD80B588B001460290019101F05FFB47
:101148000490FFE704A80590059802F09DFE009022
:10115800FFE7029804990690079106980EF098FE0A
:1011680007990EF011FFFFE708B080BD80B588B081
:1011780001460290019101F042FB0490FFE704A8A8
:101188000590059803F002F80090FFE7029804998B
:101198000690079106980EF07BFE07990EF0F4FE74
:1011A800FFE708B080BD80B588B001460290019184
:1011B80001F025FB0490FFE704A80590059802F0CC
:1011C80095FC0090FFE7029804990690079106980D
:1011D8000EF05EFE07990EF0D7FEFFE708B080BD5F
:1011E80080B588B001460290019101F008FB049097
:1011F800FFE704A80590059802F05EFD0090FFE760
:10120800029804990690079106980EF041FE0799F6
:101218000EF0BAFEFFE708B080BD80B588B0014681
:101228000290019101F0EBFA0490FFE704A8059001
:10123800059802F0D9FA0090FFE702980499069001
:10124800079106980EF024FE07990EF09DFEFFE721
:1012580008B080BD80B588B001460290019101F0C8
:10126800CEFA0490FFE704A80590059802F042FF23
:101278000090FFE7029804990690079106980EF0EF
:1012880007FE07990EF080FEFFE708B080BD80B525
:1012980088B001460290019101F0B1FA0490FFE78D
:1012A80004A80590059802F03DFE0090FFE702981B
:1012B80004990690079106980EF0EAFD07990EF03A
:1012C80063FEFFE708B080BD80B588B00146029094
:1012D800019101F094FA0490FFE704A8059005989D
:1012E80002F01CFB0090FFE7029804990690079112
:1012F80006980EF0CDFD07990EF046FEFFE708B000
:1013080080BD80B588B001460290019101F077FA5E
:101318000490FFE704A80590059802F0B3FA00903E
:10132800FFE7029804990690079106980EF0B0FD21
:1013380007990EF029FEFFE708B080BD80B588B098
:1013480001460290019101F05AFA0490FFE704A8BF
:101358000590059802F0B4FF0090FFE70298049901
:101368000690079106980EF093FD07990EF00CFE73
:10137800FFE708B080BD80B588B0014602900191B2
:1013880001F03DFA0490FFE704A80590059802F0E3
:10139800DFF90090FFE702980499069007910698F4
:1013A8000EF076FD07990EF0EFFDFFE708B080BD5F
:1013B80080B588B001460290019101F020FA0490AE
:1013C800FFE704A80590059802F010FD0090FFE7DC
:1013D800029804990690079106980EF059FD07990E
:1013E8000EF0D2FDFFE708B080BD80B588B0014699
:1013F8000290019101F003FA0490FFE704A8059018
:10140800059802F00BF90090FFE7029804990690FE
:10141800079106980EF03CFD07990EF0B5FDFFE721
:1014280008B080BD80B588B001460290019101F0F6
:10143800E6F90490FFE704A80590059802F0A2FBDE
:101448000090FFE7029804990690079106980EF01D
:101458001FFD07990EF098FDFFE708B080BD80B525
:1014680088B00146049004980391029005F01CFA94
:101478000190FFE7019881B2029A8A4204D9FFE7F6
:1014880005A80121018005E0049805A948800020ED
:101498000880FFE705A84188059808B080BDB0B569
:1014A80002AFACB06C4664096401A54613460C460D
:1014B80005460B900C910D920A93099408950DF02E
:1014C80035FD0E90FFE700200F90FFE70F980E996B
:1014D80040180D99884205D9FFE70F980D99884261
:1014E80030D35FE0FFE710A82A902A982B902B981A
:1014F8000790FFE7079819900B980F990DF03DFE9C
:101508001A90FFE70C980F990DF037FE1B90FFE734
:101518001A9919980E9A10F067FA0690FFE71B9926
:101528001A980E9A10F060FA0590FFE719991B981F
:101538000E9A10F059FA0490FFE70E980F990818C0
:101548000F90C3E7FFE70D980F99401A24901CA845
:1015580028902898299029980390FFE703982590C8
:101568000B980F990DF009FE2690FFE70C980F993C
:101578000DF003FE2790FFE726992598249A10F08E
:1015880033FA0290FFE727992698249A10F02CFA4C
:101598000190FFE725992798249A10F025FA0090E2
:1015A800FFE7FFE7FC1F013CA546B0BD80B584B04E
:1015B800014603900398029100F0C8F80190FFE7F4
:1015C8000198006804B080BD80B584B001460290DF
:1015D8000298019100F0C4F80090FFE7009803908A
:1015E800039804B080BD80B586B00A4603460390D0
:1015F8000491039804990292019300F008F8059069
:10160800FFE7059805F0D6F9FFE706B080BD80B57D
:1016180086B00A4603460490059104980392029303
:1016280000F094F80190FFE70599019805F0E7F9B3
:101638000090FFE7009806B080BDD4D480B586B08E
:10164800014605900598049100F012F80390029164
:10165800FFE7064A102303980299FFF721F8019043
:101668000091FFE70198009906B080BDB01B01000A
:1016780080B590B0014606900FA800220270069A25
:101688000123037010460591FEF7A6FF0990FFE7B6
:101698000998012100280490039101D1049803902E
:1016A800039804990029029004D0FFE702980128C2
:1016B80006D004E0002008900790079014E0FEDEB2
:1016C8000FA80021017009980A900698001D00F0E3
:1016D80036F80190FFE70A9801990B910C900B9846
:1016E8000C9A07900892FFE70998002807D113E0A1
:1016F8000FA8002101700798089910B080BD0FA8A5
:101708000078C0070028F3D0FFE70FA80021017078
:1017180009A800F02AF9EBE709A800F00AF9E7E7B9
:1017280080B584B000F019F8FFE70020FFF74CFF00
:101738000190FFE701980390039804B080BD82B040
:10174800014601900198009102B0704782B00146AD
:1017580001900198009102B0704782B002B07047C2
:1017680083B001460190019802900298009103B05D
:10177800704782B00146019001980068009102B05C
:10178800704780B588B0014602900191FFF7B2F921
:101798000490FFE704A80590059802F0EEFD00907C
:1017A800FFE7029804990690079106980EF070FBDF
:1017B80007990EF0E9FBFFE708B080BD80B58AB055
:1017C8000A460346049005910392029307F0B8FB7A
:1017D8000690FFE7059806A90791079904F0E2FF2C
:1017E8000190FFE7049806990890099108980EF06F
:1017F8004FFB09990EF0C8FBFFE70AB080BD80B522
:1018080088B00A4603460490059104980599039008
:1018180008460292019304F0DFFF0090FFE7039867
:101828000690009907910698079908B080BD82B084
:101838000146019001980068009102B0704780B598
:1018480084B00146039003984068029104F0CDFFEC
:101858000190FFE7019804B080BD80B588B00A46C2
:10186800034603900491049802920193FFF7F7FD51
:1018780006AA51801080FFE706A80088002800907B
:1018880009D0FFE70098012804D1FFE705A8002147
:1018980001800DE0FEDE06A8408807A908800398AD
:1018A8000088079904F0A8FF05AA5180108004E079
:1018B80005A84188059808B080BDF9E780B584B0CF
:1018C800014603AA10701078019104F053FDC0B2CC
:1018D8000090FFE7009804B080BD80B582B0014653
:1018E80001900198009107F0EBFA01E002B080BD89
:1018F800019800F013F8F9E780B582B0014601902D
:1019080001980078C0070028009102D0FFE702B0D4
:1019180080BD0198001DFFF7E0FFF8E780B582B0B1
:10192800014601900198009101F061FAFFE702B0C9
:1019380080BD80B582B001460190019800680028FA
:10194800009102D1FFE702B080BD019800F00DF8C8
:10195800F9E780B582B0014601900198001D009119
:1019680000F003F8FFE702B080BD80B582B0014601
:10197800019001980091FEF74EFEFFE702B080BD8E
:1019880084B00A46034602900391029800780399AE
:101998000978401A411E88410192009304B07047AB
:1019A800B0B586B00A4603460490059104980088AD
:1019B800059909880124002588420392029301951C
:1019C800009401D301980090009806B0B0BDD4D41B
:1019D80080B58AB00A460346079008910692059397
:1019E8000AF060F80490FFE70498042804D0FFE7A1
:1019F80018480EF09DFCFEDE0798089909F05AFE7B
:101A08000390FFE70398032804D8FFE710480EF077
:101A18008FFCFEDE002009900798089909F0A0FEC7
:101A28000290FFE7029801784278120251188278F2
:101A3800C3781B029A18120451180991FFE70998F4
:101A480004F036FF0190FFE701980AB080BDC04658
:101A5800C01C01004C1C0100B0B596B013460C46E2
:101A680005460E900F911092109800280D930C9433
:101A78000B9518D113E011A80021017009E0109806
:101A88000E990F9A0A900846114609F013FE09901C
:101A98001CE011A80078C007002825D028E012A86B
:101AA800002101700CE010980121002209280892F9
:101AB800079101D308980790079812A90870FFE7C3
:101AC80012A80078C0070028D9D1D4E70120002146
:101AD8000A9A099B9A420691059001D906980590A1
:101AE800059811A90870D4E712480EF021FCFEDE13
:101AF80000201490139013A8082108F0E5FD159014
:101B0800FFE70E980F9909F02BFE0490FFE7159850
:101B1800109A04990FF068FF0390FFE71598416841
:101B2800006804F0CCFE02910190FFE70198029949
:101B380016B0B0BD1C1D0100F0B587B01C46154697
:101B48000E4607460491059206930499059A069B4A
:101B5800016042608360039402950196009707B084
:101B6800F0BDF0B587B01C4615460E4607460491F1
:101B7800059206930499059A069B0160426083606A
:101B8800039402950196009707B0F0BDF0B587B0B1
:101B98001C4615460E46074604910592069304997D
:101BA800059A069B01604260836003940295019642
:101BB800009707B0F0BDF0B587B01C4615460E4635
:101BC80007460491059206930499059A069B0160BD
:101BD80042608360039402950196009707B0F0BDB8
:101BE800F0B587B01C4615460E4607460491059287
:101BF80006930499059A069B0160426083600394EA
:101C080002950196009707B0F0BDF0B58DB0129C13
:101C18001D4616460F46089109920A930B94089997
:101C2800099A0A9B0B9C0790184606912146059530
:101C38000496039702920AF023FE01900091FFE7B1
:101C48000CA800210170069807990860029A4A605A
:101C5800019B8B60009CCC600C9D0D740DB0F0BD99
:101C6800B0B588B013460C46054605900691079214
:101C780007980599069A04930394029500F024F8AE
:101C88000190FFE7019808B0B0BD80B588B00A465A
:101C98000346059006910598069904920393FEF76A
:101CA80016FF02900191FFE70298019908B080BDE4
:101CB80084B00A4603460290039102980399019260
:101CC800009304B07047D4D4B0B588B013460C461E
:101CD800054605900691079205980799884204934E
:101CE800039402950190009105D2FFE706980199A7
:101CF800401808B0B0BD03480199009A0EF036FBB1
:101D0800FEDEC046881D0100F0B58FB013460C46B4
:101D18000546069207AA16460590049203938DC9B4
:101D28008DC68DC98DC606980599049A0290C9CAB0
:101D3800C9C1C9CAC9C10298059908620194009528
:101D48000FB0F0BDF0B58CB013460C4605460692B0
:101D580007AA1646059081C981C6049285C985C619
:101D680006980599049AC0CAC0C10390C1CAC1C1E6
:101D78000398059948610293019400950CB0F0BD51
:101D8800F0B58FB013460C460546069207AA1646CC
:101D98000590049203938DC98DC68DC98DC606988A
:101DA8000599049A0290C9CAC9C1C9CAC9C1029889
:101DB80005990862019400950FB0F0BD80B592B006
:101DC800014602AA002313708268099242680892A9
:101DD8000068079004A807AA0191114600F030FA9C
:101DE800FFE706980C9005980B9004980A90FFE777
:101DF8000AA800F0D5FA0EA90870FFE70EA8007827
:101E0800C1070029009004D0FFE70098012802D0FC
:101E180000E006E0FEDE0EA80078C007002805D125
:101E280008E0FFE702A8007812B080BD11A80121E0
:101E3800017000E0FAE7119802A90870D8E770B5B8
:101E48009CB0014603AA002313700BAA134670C85E
:101E580070C370C870C305A80291114600F0E4F978
:101E6800FFE705A811A91CC81CC11CC81CC1FFE7B5
:101E780011A800F0AFFA18A90870FFE718A80078B1
:101E8800C1070029019004D0FFE70198012802D07A
:101E980000E006E0FEDE18A80078C007002805D19B
:101EA80008E0FFE703A800781CB070BD1BA801215B
:101EB800017000E0FAE71B9803A90870D8E780B51D
:101EC80092B0014602AA0023137082680992426800
:101ED80008920068079004A807AA0191114600F02B
:101EE800F5F9FFE706980C9005980B9004980A906E
:101EF800FFE70AA800F0A2FA0EA90870FFE70EA8EB
:101F08000078C1070029009004D0FFE70098012855
:101F180002D000E006E0FEDE0EA80078C007002828
:101F280005D108E0FFE702A8007812B080BD11A82B
:101F38000121017000E0FAE7119802A90870D8E7BA
:101F480080B592B0014602AA0023137082680992F4
:101F5800426808920068079004A807AA01911146F0
:101F680000F0C2F9FFE706980C9005980B900498CA
:101F78000A90FFE70AA800F0DFF90EA90870FFE74A
:101F88000EA80078C1070029009004D0FFE7009848
:101F9800012802D000E006E0FEDE0EA80078C007A7
:101FA800002805D108E0FFE702A8007812B080BD3C
:101FB80011A80121017000E0FAE7119802A9087040
:101FC800D8E770B5A4B0014602AA002313700DAA81
:101FD800134670C870C370C870C370C870C304A8B3
:101FE8000191114600F064F9FFE704A816A91CC87E
:101FF8001CC11CC81CC11CC81CC1FFE716A800F0E6
:10200800B5F920A90870FFE720A80078C1070029C2
:10201800009004D0FFE70098012802D000E006E015
:10202800FEDE20A80078C007002805D108E0FFE7F9
:1020380002A8007824B070BD23A80121017000E037
:10204800FAE7239802A90870D8E780B592B001464C
:1020580002AA0023137082680992426808920068F5
:10206800079004A807AA0191114600F0F7F8FFE7C6
:1020780006980C9005980B9004980A90FFE70AA818
:1020880000F0F6F90EA90870FFE70EA80078C1075E
:102098000029009004D0FFE70098012802D000E052
:1020A80006E0FEDE0EA80078C007002805D108E08B
:1020B800FFE702A8007812B080BD11A801210170C5
:1020C80000E0FAE7119802A90870D8E770B5A4B043
:1020D800014602AA002313700DAA134670C870C3E4
:1020E80070C870C370C870C304A80191114600F08D
:1020F800C3F8FFE704A816A91CC81CC11CC81CC14A
:102108001CC81CC1FFE716A800F0FCF820A908703D
:10211800FFE720A80078C1070029009004D0FFE756
:102128000098012802D000E006E0FEDE20A8007832
:10213800C007002805D108E0FFE702A8007824B00E
:1021480070BD23A80121017000E0FAE7239802A9D5
:102158000870D8E780B592B0014602AA0023137030
:1021680082680992426808920068079004A807AA42
:102178000191114600F08EF8FFE706980C9005983B
:102188000B9004980A90FFE70AA800F03DF90EA901
:102198000870FFE70EA80078C1070029009004D056
:1021A800FFE70098012802D000E006E0FEDE0EA856
:1021B8000078C007002805D108E0FFE702A80078EA
:1021C80012B080BD11A80121017000E0FAE7119852
:1021D80002A90870D8E7F0B58FB01C4615460E4620
:1021E8000792089309AA88C988C2069089C989C232
:1021F800079808990594049503960AF041FB029004
:102208000191FFE70EA80021017009A806990CC8E2
:102218000CC11CC81CC1029806994861019A8A61C0
:102228000E9B0B770FB0F0BD70B582B00A4603461F
:1022380070C970C070C970C00192009302B070BDBF
:1022480010B582B00A4603468C6884604C684460C6
:10225800096801600192009302B010BD10B582B008
:102268000A4603468C6884604C68446009680160CB
:102278000192009302B010BD70B582B00A460346C1
:1022880070C970C070C970C070C970C001920093E5
:1022980002B070BD10B582B00A4603468C688460EF
:1022A8004C684460096801600192009302B010BD57
:1022B80070B582B00A46034670C970C070C970C054
:1022C80070C970C00192009302B070BD10B582B0A1
:1022D8000A4603468C6884604C684460096801605B
:1022E8000192009302B010BD10B582B00A460346B1
:1022F8008C6884604C6844600968016001920093AE
:1023080002B010BD80B586B00146059005980491CD
:1023180000F029F90390FFE705982030039902900F
:102328000846029900F077FF0190FFE70120019924
:102338000140084606B080BD80B586B001460590CC
:102348000598049109F04FFA0390FFE705980830C3
:10235800039902900846029900F05EFE0190FFE79B
:10236800012001990140084606B080BD80B586B0BD
:10237800014605900598049100F0F5F80390FFE7F1
:1023880005982030039902900846029900F099FEBA
:102398000190FFE7012001990140084606B080BD81
:1023A80080B586B0014605900598049109F01BFA9E
:1023B8000390FFE7059808300399029008460299B0
:1023C80000F0D3FF0190FFE7012001990140084682
:1023D80006B080BD80B586B0014605900598049189
:1023E80000F060F80390FFE7059814300399029015
:1023F8000846029900F064FF0190FFE70120019967
:102408000140084606B080BD80B586B001460590FB
:102418000598049109F0E7F90390FFE7059808305B
:10242800039902900846029900F0A0FE0190FFE788
:10243800012001990140084606B080BD80B586B0EC
:10244800014605900598049109F0CDF90390FFE73E
:1024580005980830039902900846029900F087FD14
:102468000190FFE7012001990140084606B080BDB0
:1024780080B586B0014605900598049109F0B3F936
:102488000390FFE7059808300399029008460299DF
:1024980000F018FD0190FFE701200199014008466E
:1024A80006B080BD80B58AB00146059009A8002213
:1024B80002700598007C00280491039008D0FFE77B
:1024C800039801280CD0FFE7039802280DD012E0EA
:1024D800059809A901220A7009F085F907900EE00C
:1024E800059809F080F9069037E00598083009F05A
:1024F8007AF9069032E0FEDE06980AB080BD0798A9
:10250800012100280290019101D1029801900198BF
:1025180002990029009004D0FFE70098012809D00B
:10252800E9E70598022101740598083009F05BF97C
:10253800069007E009A800210170079808900898FC
:10254800069000E0FFE709A80078C007002806D138
:10255800FFE709A800210170CEE7CDE7CCE709A87D
:1025680000210170F5E780B58AB00146059009A8F9
:10257800002202700598007F00280491039008D07B
:10258800FFE7039801280CD0FFE7039802280DD035
:1025980012E0059809A901220A70FFF783FF079046
:1025A8000EE00598FFF77EFF069037E00598143097
:1025B80009F019F9069032E0FEDE06980AB080BDEF
:1025C8000798012100280290019101D102980190F9
:1025D800019802990029009004D0FFE7009801288B
:1025E80009D0E9E70598022101770598143009F028
:1025F800FAF8069007E009A80021017007980890EA
:102608000898069000E0FFE709A80078C0070028AE
:1026180006D1FFE709A800210170CEE7CDE7CCE796
:1026280009A800210170F5E7B0B58AB013460C4639
:10263800054604900591069204980790059808901D
:1026480003930294019504F0F3F90090FFE70698CC
:1026580000994843099007980899099AFEF71FFFBF
:10266800FFE70AB0B0BDB0B58AB013460C460546C0
:102678000490059106920498079005980890039392
:102688000294019504F0CBF90090FFE706980099B1
:102698004843099007980899099AFEF700FFFFE751
:1026A8000AB0B0BD80B586B00A46034603900491CF
:1026B8000292019304F0BCF90090FFE700981F28EC
:1026C80006D8FFE7039800F05FF805A9088005E041
:1026D800039804990122FFF7A7FF0AE004980399D9
:1026E80000880880FFE70498059900F06FF8FFE775
:1026F80000E0FFE706B080BD80B586B00A46034615
:10270800039004910292019304F089F90090FFE785
:1027180000981F2805D8FFE7039800F016F80590E1
:1027280005E0039804990122FFF79DFF0AE0049849
:10273800039900680860FFE70498059900F053F8CA
:10274800FFE700E0FFE706B080BD8BB001460490CC
:10275800069805900391FFE7049805A9099109993E
:102768000A910A9902900191FFE702980168019A7B
:102778001160FFE70598079007980890089800905F
:10278800FFE700980BB070478BB00146049006989D
:1027980005AA10800391FFE7049805A909910999F2
:1027A8000A910A9902900191FFE702980188019A1B
:1027B8001180FFE7059807A90880079808A90880ED
:1027C80008880090FFE700980BB0704784B00A466D
:1027D8000346029003A801800298039901800192A0
:1027E800009304B0704784B00A46034602900391F0
:1027F8000298039901600192009304B0704781B078
:1028080002200090009801B0704783B00146019003
:10281800019802900298009103B0704783B0014676
:102828000190019802900298009103B0704783B01C
:1028380001460190019802900298009103B07047F8
:1028480083B001460190019802900298009103B06C
:10285800704783B001460190019802900298009158
:1028680003B0704784B00146029002980078C2070E
:10287800002A0191009004D0FFE70098012804D0B5
:1028880007E003A80021017004E003A801210170FA
:1028980000E0FEDE03A8007804B0704784B001466B
:1028A80002900298007800280191009008D0FFE774
:1028B8000098012808D0FFE70098022808D00BE00C
:1028C80003A80021017008E003A80121017004E0B9
:1028D80003A80321017000E0FEDE039804B07047EE
:1028E80085B00A460346039004A80170029201933A
:1028F800FFE70398016801229143016004A800786A
:102908000090FFE703980168009A1143016003985B
:1029180005B0704780B584B001460290029803AABA
:102928000023137012780191114600F017F80090F7
:10293800FFE7009804B080BD80B584B001460290DE
:10294800029803AA0123137012780191114600F02E
:1029580005F80090FFE7009804B080BD80B588B006
:102968000A460346069007A8017006990592049343
:102978000391FFF777FF0290FFE7012002990140DA
:102988000398FFF7ADFF0190FFE7019808B080BDFD
:1029980084B00146029002980078072801910090BF
:1029A80028D80098784400794000874403070B0F23
:1029B80013171B1F03A8002101701CE003A80121A5
:1029C800017018E003A80221017014E003A8032194
:1029D800017010E003A8042101700CE003A8052190
:1029E800017008E003A80621017004E003A807218C
:1029F800017000E0FEDE039804B0704784B0014621
:102A0800029002980078C207002A0191009004D031
:102A1800FFE70098012804D007E003A8002101700F
:102A280004E003A80121017000E0FEDE03A800789D
:102A380004B0704784B001460290029800780028DC
:102A48000191009008D0FFE70098012808D0FFE71F
:102A58000098022808D00BE003A80021017008E0C4
:102A680003A80221017004E003A80321017000E01B
:102A7800FEDE039804B0704785B00A46034603900B
:102A880004A8017002920193FFE7039801680C22E1
:102A98009143016004A80078032108408000009059
:102AA800FFE703980168009A11430160039805B095
:102AB800704780B584B001460290029803AA0223A9
:102AC8001370039A0191114600F005F80090FFE792
:102AD800009804B080BD80B588B00A4603460690C9
:102AE80007A801700699059204930391FFF7D6FE93
:102AF8000290FFE703980299FFF7BEFF0190FFE7F6
:102B0800019808B080BD80B584B001460290029853
:102B180003AA00231370039A01911146FFF7DBFF04
:102B28000090FFE7009804B080BD85B00A460346D0
:102B3800039004A8017002920193FFE703980168CB
:102B4800072213029943016004A80078104000028C
:102B58000090FFE703980168009A11430160039809
:102B680005B0704780B584B001460290029803AA68
:102B780000231370039A0191114600F005F80090A4
:102B8800FFE7009804B080BD80B588B00A460346C8
:102B9800069007A801700699059204930391FFF720
:102BA800F7FE0290FFE703980299FFF7BEFF019036
:102BB800FFE7019808B080BD80B584B00146029057
:102BC800029803AA0123137012780191114600F0AC
:102BD80032F80090FFE7009804B080BD85B00A463F
:102BE8000346039004A8017002920193FFE703983B
:102BF800016802229143016004A800784000009017
:102C0800FFE703980168009A11430160039805B033
:102C1800704780B584B001460290029803AA002349
:102C2800137012780191114600F005F80090FFE743
:102C3800009804B080BD80B588B00A460346069067
:102C480007A801700699059204930391FFF7D6FE31
:102C58000290FFE70120029901400398FFF7BEFFA9
:102C68000190FFE7019808B080BD85B00A46034689
:102C7800039004A8017002920193FFE7039801688A
:102C8800032213049943016004A80078104000044B
:102C98000090FFE703980168009A114301600398C8
:102CA80005B0704780B588B00A460346069007A865
:102CB80001700699059204930391FFF7BBFE0290F9
:102CC800FFE703980299FFF7D0FF0190FFE701980B
:102CD80008B080BD80B584B001460290029803AA6E
:102CE80000231370039A01911146FFF7DBFF009050
:102CF800FFE7009804B080BDF0B58BB0109C1D466E
:102D080016460F4604900591069207930894059974
:102D1800069A00230A9309930993079B089C03903A
:102D280004980160426009990A9A8160C26003614F
:102D380044610295019600970BB0F0BD80B586B04E
:102D4800FDF728FE02A90870FFE7FDF796FFFFE7E9
:102D58000BF0C6FBFFE705A804900498FDF7DCFE1E
:102D680003A90870FFE702A80BF072FB0090FFE7C9
:102D78000098C107002903D0FFE7FDF77CFFFFE7B4
:102D880003A8007806B080BD80B58AB001460490DB
:102D9800039108F06EFA0590FFE70598002824D003
:102DA800FFE7049806F0D6FD07910690FFE707981D
:102DB80000280CD0FFE70698079908900991049815
:102DC80001680290084606F0FCF8019000E00CE06B
:102DD800019806F05AFA0090FFE7089A099B0298B2
:102DE800009900F00FF8FFE7F1E70AB080BD80B561
:102DF80082B00146019001980091FFF7C5FFFFE7F7
:102E080002B080BDF0B589B01C4615460E4607468F
:102E180005900691079208930698049403950296E4
:102E280001970BF0B9FD0090FFE70799089A009801
:102E380000F003F8FFE709B0F0BDB0B58AB013465B
:102E48000C460546079008910992079808A906902C
:102E58000846059304940395FEF7E9FC0290FFE702
:102E680008A8FEF7ECFC0190FFE706980299019A82
:102E780006F083F8FFE70AB0B0BD10B58AB0134674
:102E88000C46059106920599069A04900846114643
:102E98000393029408F00EFC0190FFE707A801993C
:102EA80006F045F9FFE70599069A07A804F0C8F95E
:102EB800FFE70998049988600898486007980860AF
:102EC8000AB010BD10B58CB00A46034605900691AD
:102ED8000BA8002101700AAC21700121017021703A
:102EE80005980028049203930290019101D1029859
:102EF8000190019802990029009004D0FFE70098FA
:102F0800012805D003E007A80021017012E0FEDEC9
:102F18000BA800210170059808900AA8017006986E
:102F2800089909910999FDF7F7F8FFE707A8012122
:102F38000170FFE70AA80078C007002804D1FFE75E
:102F48000598002808D111E00AA800210170F7E7C8
:102F580007A800780CB010BD0BA80078C00700289F
:102F6800F6D0FFE70BA800210170F1E7F0E710B5F4
:102F78008CB00A460346059006910BA80021017003
:102F88000AAC217001210170217005980028049273
:102F980003930290019101D102980190019802993E
:102FA8000029009004D0FFE70098012805D003E02D
:102FB80007A80021017012E0FEDE0BA800210170B5
:102FC800059808900AA80170069808990991099926
:102FD800FDF7B1F8FFE707A801210170FFE70AA88C
:102FE8000078C007002804D1FFE70598002808D119
:102FF80011E00AA800210170F7E707A800780CB0D3
:1030080010BD0BA80078C0070028F6D0FFE70BA872
:1030180000210170F1E7F0E710B58CB00A460346CD
:10302800059006910BA8002101700AAC21700121BE
:103038000170217005980028049203930290019171
:1030480001D102980190019802990029009004D0BA
:10305800FFE70098012805D003E007A800210170C8
:1030680012E0FEDE0BA800210170059808900AA85E
:1030780001700698089909910999FDF73EF8FFE74C
:1030880007A801210170FFE70AA80078C0070028F7
:1030980004D1FFE70598002808D111E00AA800210B
:1030A8000170F7E707A800780CB010BD0BA80078EE
:1030B800C0070028F6D0FFE70BA800210170F1E750
:1030C800F0E710B58CB00A460346059006910BA8A8
:1030D800002101700AAC217001210170217005984E
:1030E8000028049203930290019101D10298019063
:1030F800019802990029009004D0FFE70098012860
:1031080005D003E007A80021017012E0FEDE0BA83D
:1031180000210170059808900AA80170069808997E
:1031280009910999FCF7BCFFFFE707A80121017085
:10313800FFE70AA80078C007002804D1FFE7059830
:10314800002808D111E00AA800210170F7E707A8B4
:1031580000780CB010BD0BA80078C0070028F6D086
:10316800FFE70BA800210170F1E7F0E710B58CB07C
:103178000A460346059006910BA8002101700AAC87
:103188002170012101702170059800280492039391
:103198000290019101D102980190019802990029A9
:1031A800009004D0FFE70098012805D003E007A8A5
:1031B8000021017012E0FEDE0BA8002101700598C5
:1031C80008900AA801700698089909910999FCF7CE
:1031D800C1FFFFE707A801210170FFE70AA80078EF
:1031E800C007002804D1FFE70598002808D111E09E
:1031F8000AA800210170F7E707A800780CB010BDF5
:103208000BA80078C0070028F6D0FFE70BA800211C
:103218000170F1E7F0E710B58CB00A460346059057
:1032280006910BA8002101700AAC217001210170E0
:10323800217005980028049203930290019101D10E
:1032480002980190019802990029009004D0FFE7A4
:103258000098012805D003E007A80021017012E0BA
:10326800FEDE0BA800210170059808900AA80170DD
:103278000698089909910999FCF721FFFFE707A823
:1032880001210170FFE70AA80078C007002804D1CF
:10329800FFE70598002808D111E00AA8002101706D
:1032A800F7E707A800780CB010BD0BA80078C00796
:1032B8000028F6D0FFE70BA800210170F1E7F0E73E
:1032C80010B58CB00A460346059006910BA800215C
:1032D80001700AAC21700121017021700598002845
:1032E800049203930290019101D1029801900198F0
:1032F80002990029009004D0FFE70098012805D022
:1033080003E007A80021017012E0FEDE0BA80021EF
:103318000170059808900AA8017006980899099103
:103328000999FCF7DBFEFFE707A801210170FFE719
:103338000AA80078C007002804D1FFE705980028EC
:1033480008D111E00AA800210170F7E707A8007862
:103358000CB010BD0BA80078C0070028F6D0FFE716
:103368000BA800210170F1E7F0E710B58CB00A4610
:103378000346059006910BA8002101700AAC217044
:10338800012101702170059800280492039302908E
:10339800019101D1029801900198029900290090A9
:1033A80004D0FFE70098012805D003E007A8002112
:1033B800017012E0FEDE0BA800210170059808904C
:1033C8000AA801700698089909910999FCF7D1FE95
:1033D800FFE707A801210170FFE70AA80078C007E6
:1033E800002804D1FFE70598002808D111E00AA8B1
:1033F80000210170F7E707A800780CB010BD0BA8F2
:103408000078C0070028F6D0FFE70BA8002101705C
:10341800F1E7F0E780B586B00146049003910AF021
:10342800EBFF0290FFE75120000102990818FDF711
:103438000FFC0590FFE705A8FDF734FC0190FFE7B6
:10344800FFE708200199014048424141084606B07B
:1034580080BD80B586B00146049003910AF0CCFF88
:103468000290FFE75120000102990818FDF7F0FBD0
:103478000590FFE705A8FDF715FC0190FFE7FFE7BA
:10348800012040040199014048424141084606B0E4
:1034980080BD80B586B00146049003910AF0ACFF68
:1034A8000290FFE75120000102990818FDF7D0FBB0
:1034B8000590FFE705A8FDF7F5FB0190FFE7FFE79B
:1034C800012080060199014048424141084606B062
:1034D80080BDD4D480B584B00146029001910AF031
:1034E8008BFF0090FFE7044800990818FDF7C5FC1A
:1034F800FFE704B080BDC0460C05000080B586B06B
:1035080001460590059803910290FFE70221029871
:10351800FDF72FFA0190FFE7019806B080BD80B54E
:1035280084B00146029001910AF066FF0090FFE71F
:10353800A120C00000990818FDF7D9FCFFE704B0E6
:1035480080BD80B586B0014605900598039102902C
:10355800FFE702210298FDF798FB0190FFE7019829
:1035680006B080BD80B584B00146029001910AF092
:1035780043FF0090FFE7044800990818FDF79AFCFC
:10358800FFE704B080BDC0460C05000080B586B0DA
:1035980001460590059803910290FFE704210298DF
:1035A800FDF7E7F90190FFE7019806B080BD80B507
:1035B80084B00146029001910AF01EFF0090FFE7D7
:1035C800A120C00000990818FDF7AEFCFFE704B081
:1035D80080BD80B586B0014605900598039102909C
:1035E800FFE704210298FDF750FB0190FFE70198DF
:1035F80006B080BD80B586B00AF0FEFE0090FFE7F9
:10360800FFE705480099081803900398FDF7EDFEB9
:10361800FFE706B080BDC0460407000080B58EB045
:1036280001460D900D980B91FFF7EFF80A90FFE710
:103638000A98FFF781F90990FFE70998FFF7F7F86B
:103648000890FFE70898FFF78DFA0790FFE70798BB
:10365800FFF7E4F80690FFE70698FFF754FA05909D
:10366800FFE70598FFF7F5F80490FFE70498FFF7E0
:1036780031FB0390FFE70398FFF7E2F80290FFE7BA
:103688000298FFF799FA0190FFE701980EB080BD04
:1036980080B586B00AF0B0FE0090FFE7FFE7E120B2
:1036A800C0000099081803900398FDF75AFCFFE73B
:1036B80006B080BD80B58EB001460D900D980B9177
:1036C800FFF7A3F80A90FFE70A98FFF735F9099082
:1036D800FFE70998FFF7ABF80890FFE70898FFF7AE
:1036E80041FA0790FFE70798FFF798F80690FFE779
:1036F8000698FFF708FA0590FFE70598FFF7A9F87D
:103708000490FFE70498FFF7E5FA0390FFE70398B2
:10371800FFF796F80290FFE70298FFF74DFA01903D
:10372800FFE701980EB080BD80B586B00AF064FE50
:103738000090FFE7FFE705480099081803900398F1
:10374800FDF719FEFFE706B080BDC0460C07000074
:1037580080B58EB001460D900D980B91FFF755F886
:103768000A90FFE70A98FFF7D5F80990FFE709984C
:10377800FFF75DF80890FFE70898FFF7F3F907905F
:10378800FFE70798FFF74AF80690FFE70698FFF764
:1037980090F90590FFE70598FFF75BF80490FFE7BD
:1037A8000498FFF797FA0390FFE70398FFF748F8A4
:1037B8000290FFE70298FFF72CFA0190FFE70198C3
:1037C8000EB080BD80B586B00AF016FE0090FFE707
:1037D800FFE7712000010099081803900398FDF78E
:1037E8001CFDFFE706B080BD80B58EB001460D9088
:1037F8000D980B91FFF709F80A90FFE70A98FFF771
:103808009BF80990FFE70998FFF711F80890FFE780
:103818000898FFF7A7F90790FFE70798FEF7FEFF5C
:103828000690FFE70698FFF76EF90590FFE7059801
:10383800FFF70FF80490FFE70498FFF74BFA03909F
:10384800FFE70398FEF7FCFF0290FFE70298FFF7F7
:10385800B3F90190FFE701980EB080BD80B586B03E
:103868000AF0CAFD0090FFE7FFE70548009908182D
:1038780003900398FDF745FDFFE706B080BDC046FD
:103888001407000080B58EB001460D900D980B917D
:10389800FEF7BBFF0A90FFE70A98FFF74DF809907B
:1038A800FFE70998FEF7C3FF0890FFE70898FFF7BE
:1038B80059F90790FFE70798FEF7B0FF0690FFE772
:1038C8000698FFF720F90590FFE70598FEF7C1FF76
:1038D8000490FFE70498FFF7FDF90390FFE70398CA
:1038E800FEF7AEFF0290FFE70298FFF765F9019037
:1038F800FFE701980EB080BD80B586B00AF07CFD68
:103908000090FFE7FFE7E320C00000990818039044
:103918000398FDF7D9FCFFE706B080BD80B58EB0EF
:1039280001460D900D980B91FEF76FFF0A90FFE787
:103938000A98FFF701F80990FFE70998FEF777FF63
:103948000890FFE70898FFF70DF90790FFE7079839
:10395800FEF764FF0690FFE70698FFF7D4F8059096
:10396800FFE70598FEF775FF0490FFE70498FFF757
:10397800B1F90390FFE70398FEF762FF0290FFE7B3
:103988000298FFF719F90190FFE701980EB080BD82
:1039980080B586B00AF030FD0090FFE7FFE70548E4
:1039A8000099081803900398FDF7A6FBFFE706B0F7
:1039B80080BDC0461C07000080B58EB001460D9042
:1039C8000D980B91FEF721FF0A90FFE70A98FEF782
:1039D800B3FF0990FFE70998FEF729FF0890FFE772
:1039E8000898FFF7BFF80790FFE70798FEF716FF5C
:1039F8000690FFE70698FFF786F80590FFE7059819
:103A0800FEF727FF0490FFE70498FFF763F9039098
:103A1800FFE70398FEF714FF0290FFE70298FFF70D
:103A2800CBF80190FFE701980EB080BD80B586B055
:103A38000AF0E2FC0090FFE7FFE739204001009917
:103A4800081803900398FDF7C6FAFFE706B080BD93
:103A580080B58EB001460D900D980B91FEF7D5FEFE
:103A68000A90FFE70A98FEF767FF0990FFE70998B1
:103A7800FEF7DDFE0890FFE70898FFF773F8079058
:103A8800FFE70798FEF7CAFE0690FFE70698FFF7DC
:103A98003AF80590FFE70598FEF7DBFE0490FFE78C
:103AA8000498FFF717F90390FFE70398FEF7C8FE9D
:103AB8000290FFE70298FFF77FF80190FFE701986F
:103AC8000EB080BD80B586B00AF096FC0090FFE786
:103AD800FFE705480099081803900398FDF763FB72
:103AE800FFE706B080BDC0462407000080B58EB051
:103AF80001460D900D980B91FEF787FE0A90FFE79F
:103B08000A98FEF719FF0990FFE70998FEF78FFE5C
:103B18000890FFE70898FFF725F80790FFE7079850
:103B2800FEF77CFE0690FFE70698FEF7ECFF05908F
:103B3800FFE70598FEF78DFE0490FFE70498FFF76E
:103B4800C9F80390FFE70398FEF77AFE0290FFE7B3
:103B58000298FFF731F80190FFE701980EB080BD99
:103B680080B586B00AF048FC0090FFE7FFE7E52043
:103B7800C0000099081803900398FDF753FCFFE76D
:103B880006B080BD80B58EB001460D900D980B91A2
:103B9800FEF73BFE0A90FFE70A98FEF7CDFE099074
:103BA800FFE70998FEF743FE0890FFE70898FEF73D
:103BB800D9FF0790FFE70798FEF730FE0690FFE76A
:103BC8000698FEF7A0FF0590FFE70598FEF741FE6F
:103BD8000490FFE70498FFF77DF80390FFE7039848
:103BE800FEF72EFE0290FFE70298FEF7E5FF019030
:103BF800FFE701980EB080BD80B586B00AF0FCFBE7
:103C08000090FFE7FFE7054800990818039003981C
:103C1800FDF738FAFFE706B080BDC0462C07000064
:103C280080B58EB001460D900D980B91FEF7EDFD15
:103C38000A90FFE70A98FEF77FFE0990FFE70998C8
:103C4800FEF7F5FD0890FFE70898FEF78BFF079051
:103C5800FFE70798FEF7E2FD0690FFE70698FEF7F4
:103C680052FF0590FFE70598FEF7F3FD0490FFE784
:103C78000498FFF72FF80390FFE70398FEF7E0FD9D
:103C88000290FFE70298FEF797FF0190FFE701987F
:103C98000EB080BD80B586B00AF0AEFB0090FFE79D
:103CA800FFE7732000010099081803900398FDF7B7
:103CB80097FAFFE706B080BD80B58EB001460D903B
:103CC8000D980B91FEF7A1FD0A90FFE70A98FEF701
:103CD80033FE0990FFE70998FEF7A9FD0890FFE772
:103CE8000898FEF73FFF0790FFE70798FEF796FD55
:103CF8000690FFE70698FEF706FF0590FFE7059890
:103D0800FEF7A7FD0490FFE70498FEF7E3FF039092
:103D1800FFE70398FEF794FD0290FFE70298FEF78D
:103D28004BFF0190FFE701980EB080BD80B586B0CB
:103D38000AF062FB0090FFE7FFE7054800990818C2
:103D480003900398FDF781F9FFE706B080BDC046F0
:103D58003407000080B58EB001460D900D980B9188
:103D6800FEF753FD0A90FFE70A98FEF7E5FD099074
:103D7800FFE70998FEF75BFD0890FFE70898FEF754
:103D8800F1FE0790FFE70798FEF748FD0690FFE76A
:103D98000698FEF7B8FE0590FFE70598FEF759FD6F
:103DA8000490FFE70498FEF795FF0390FFE7039858
:103DB800FEF746FD0290FFE70298FEF7FDFE019030
:103DC800FFE701980EB080BD80B586B00AF014FBFD
:103DD8000090FFE7FFE7E720C0000099081803906C
:103DE8000398FDF7E5FAFFE706B080BD80B58EB011
:103DF80001460D900D980B91FEF707FD0A90FFE71D
:103E08000A98FEF799FD0990FFE70998FEF70FFD5C
:103E18000890FFE70898FEF7A5FE0790FFE70798C8
:103E2800FEF7FCFC0690FFE70698FEF76CFE05908F
:103E3800FFE70598FEF70DFD0490FFE70498FEF7ED
:103E480049FF0390FFE70398FEF7FAFC0290FFE7AB
:103E58000298FEF7B1FE0190FFE701980EB080BD11
:103E680080B586B00AF0C8FA0090FFE7FFE705487A
:103E78000099081803900398FDF75BF9FFE706B06F
:103E880080BDC0463C07000080B58EB001460D904D
:103E98000D980B91FEF7B9FC0A90FFE70A98FEF718
:103EA8004BFD0990FFE70998FEF7C1FC0890FFE772
:103EB8000898FEF757FE0790FFE70798FEF7AEFC55
:103EC8000690FFE70698FEF71EFE0590FFE70598A7
:103ED800FEF7BFFC0490FFE70498FEF7FBFE039093
:103EE800FFE70398FEF7ACFC0290FFE70298FEF7A5
:103EF80063FE0190FFE701980EB080BD80B586B0E3
:103F08000AF07AFA0090FFE7FFE7054800990818D9
:103F180003900398FDF7BBF9FFE706B080BDC046E4
:103F28004407000080B58EB001460D900D980B91A6
:103F3800FEF76BFC0A90FFE70A98FEF7EBFC099086
:103F4800FFE70998FEF773FC0890FFE70898FEF76B
:103F580009FE0790FFE70798FEF760FC0690FFE769
:103F68000698FEF7A6FD0590FFE70598FEF771FC99
:103F78000490FFE70498FEF7ADFE0390FFE703986F
:103F8800FEF75EFC0290FFE70298FEF742FE019002
:103F9800FFE701980EB080BD80B586B00AF02CFA14
:103FA8000090FFE7FFE70548009908180390039879
:103FB800FCF7F4FFFFE706B080BDC04654070000D9
:103FC80080B58EB001460D900D980B91FEF71DFC43
:103FD8000A90FFE70A98FEF7AFFC0990FFE70998F7
:103FE800FEF725FC0890FFE70898FEF7BBFD079051
:103FF800FFE70798FEF712FC0690FFE70698FEF722
:1040080082FD0590FFE70598FEF723FC0490FFE783
:104018000498FEF75FFE0390FFE70398FEF710FC95
:104028000290FFE70298FEF7C7FD0190FFE70198AD
:104038000EB080BD80B586B00AF0DEF90090FFE7CB
:10404800FFE7EB20C0000099081803900398FDF7DC
:1040580036F8FFE706B080BD80B58EB001460D90FA
:104068000D980B91FEF7D1FB0A90FFE70A98FEF72F
:1040780051FC0990FFE70998FEF7D9FB0890FFE784
:104088000898FEF76FFD0790FFE70798FEF7C6FB55
:104098000690FFE70698FEF736FD0590FFE70598BE
:1040A800FEF7D7FB0490FFE70498FEF713FE039092
:1040B800FFE70398FEF7C4FB0290FFE70298FEF7BC
:1040C800A8FD0190FFE701980EB080BD80B586B0CD
:1040D8000AF092F90090FFE7FFE7054800990818F1
:1040E80003900398FDF7B6F8FFE706B080BDC04619
:1040F8005C07000080B58EB001460D900D980B91BD
:10410800FEF783FB0A90FFE70A98FEF715FC099073
:10411800FFE70998FEF78BFB0890FFE70898FEF782
:1041280021FD0790FFE70798FEF778FB0690FFE769
:104138000698FEF7E8FC0590FFE70598FEF789FB6F
:104148000490FFE70498FEF7C5FD0390FFE7039886
:10415800FEF776FB0290FFE70298FEF72DFD01902F
:10416800FFE701980EB080BD80B586B00AF044F92B
:104178000090FFE7FFE73B204001009908180390F3
:104188000398FCF7F3FFFFE706B080BD80B58EB05B
:1041980001460D900D980B91FEF737FB0A90FFE74B
:1041A8000A98FEF7C9FB0990FFE70998FEF73FFB5D
:1041B8000890FFE70898FEF7D5FC0790FFE70798F7
:1041C800FEF72CFB0690FFE70698FEF79CFC05908F
:1041D800FFE70598FEF73DFB0490FFE70498FEF71C
:1041E80079FD0390FFE70398FEF72AFB0290FFE7AB
:1041F8000298FEF7E1FC0190FFE701980EB080BD40
:1042080080B586B00AF0F8F80090FFE7FFE70548A8
:104218000099081803900398FCF7FAFEFFE706B028
:1042280080BDC0466407000080B58EB001460D9081
:104238000D980B91FEF7E9FA0A90FFE70A98FEF746
:1042480069FB0990FFE70998FEF7F1FA0890FFE784
:104258000898FEF787FC0790FFE70798FEF7DEFA55
:104268000690FFE70698FEF74EFC0590FFE70598D5
:10427800FEF7EFFA0490FFE70498FEF72BFD039092
:10428800FFE70398FEF7DCFA0290FFE70298FEF7D3
:10429800C0FC0190FFE701980EB080BD80B586B0E4
:1042A8000AF0AAF80090FFE7FFE7ED20C0000099A8
:1042B800081803900398FDF741F8FFE706B080BDA2
:1042C80080B58EB001460D900D980B91FEF79DFAC2
:1042D8000A90FFE70A98FEF71DFB0990FFE7099887
:1042E800FEF7A5FA0890FFE70898FEF73BFC079051
:1042F800FFE70798FEF792FA0690FFE70698FEF7A1
:10430800D8FB0590FFE70598FEF7A3FA0490FFE7AE
:104318000498FEF7DFFC0390FFE70398FEF790FA96
:104328000290FFE70298FEF774FC0190FFE70198FE
:104338000EB080BD82B001A816210170019802B0AC
:10434800704782B001A819210170019802B0704726
:1043580082B001A815210170019802B0704782B09F
:1043680001A817210170019802B0704782B001A816
:1043780018210170019802B0704783B0014602907D
:104388000298009103B0704782B0014601AA1070EC
:104398000198009102B0704780B5B2B0014608900C
:1043A8000AA8674A028014A8079106F079FDFFE77A
:1043B8000A9A11A814A906F08DFDFFE70EA811A905
:1043C800604A06F041FEFFE70BA80EA9072206F097
:1043D8003BFEFFE708990D9824900C9823900B98C2
:1043E80022901EA822AA00F0A3FFFFE71AA81EA980
:1043F800FCF7A9FAFFE71AA80078C1070029069078
:1044080005D0FFE70698012813D0FFE7FEDE1D98C8
:1044180028901C9827901B982690289819902798E0
:104428001890269817901AA80078C007002870D00E
:1044380083E01AA8407825A908702598FFF7A4FFFB
:10444800C0B20590FFE70598FCF72AFA09AA51704F
:104458001070FFE71AA80078C007002854D052E06F
:1044680009A80178407804900846049932B080BDC4
:10447800F6E72C98FCF731FAC0B22BA90870FFE7D1
:104488002BA80078811F4A1E91410628039104D069
:10449800FFE70398012801D0B8E719E02B982FA966
:1044A80008702F98FFF770FFC0B20290FFE70298DC
:1044B800FCF7F6F909AA51701070FFE72BA80078ED
:1044C80006283BD13BE017A8FDF707FAFFE7CFE73F
:1044D8002AA80078C007002806D0FFE7299809A96C
:1044E800487000200870EEE731A800210170022111
:1044F8000170319809A948700120087017A8FDF7C4
:10450800ECF9FFE7ACE7B3E71AA8001DFDF7E5F9FA
:10451800F9E7002029902AA908700A982D9129A95D
:104528002E912D9A2E9B17A901900846019903F008
:104538009BFBC0B22CA908709BE7EAE7C3E7FDE73D
:104548000240000009100000F0B58DB0129C1D4615
:1045580016460F46079006900798089009A801800C
:104568000A920B9300880F49884205940495039694
:1045780002970CD1FFE708980068012101700A989A
:104588000B99129AFDF768FA0191009005E00998D5
:104598000CA90880FFE70DB0F0BD089840680099A5
:1045A8000160F8E70120000080B5AEB00A46089126
:1045B80009A905230B8010A907900846069206F062
:1045C8006FFCFFE7099A0DA810A906F083FCFFE726
:1045D8000AA80DA9082206F037FDFFE708990C98EC
:1045E80020900B981F900A981E901AA81EAA00F0F7
:1045F8009FFEFFE716A81AA9FCF7A5F9FFE716A87A
:104608000078C1070029059005D0FFE70598012823
:1046180013D0FFE7FEDE1998249018982390179876
:10462800229024981590239814902298139016A8F5
:104638000078C007002866D079E016A8407821A93C
:1046480008702198FFF7A0FEC1B20491FFE7079810
:104658000499FCF709F9FFE716A80078C0070028B5
:104668004CD04AE02EB080BDFCE72898FCF735F91D
:10467800C0B227A90870FFE727A80078811F4A1E43
:1046880091410628039104D0FFE70398012801D03F
:10469800C0E717E027982BA908702B98FFF774FE3E
:1046A800C1B20291FFE707980299FCF7DDF8FFE72E
:1046B80027A8007806283BD13BE013A8FDF70DF9A1
:1046C800FFE7D1E726A80078C007002806D0FFE753
:1046D80025980799486000200870EEE72DA800216A
:1046E8000170022101702D98079948700120087007
:1046F80013A8FDF7F2F8FFE7B4E7B5E716A8001D21
:10470800FDF7EBF8F9E70020259026A9087009982D
:10471800299125A92A91299A2A9B13A9019008462B
:10472800019903F0ADFDC0B228A908709DE7EAE73A
:10473800C3E7FDE7F0B58FB0149C1D4616460F463B
:104748000990089009980A900BA801800C920D9383
:1047580000881349884207940695059604970390A4
:1047680006D0FFE7039881B20E4A914205D00CE0CB
:104778000A980068012101700BE00C980D99149AB1
:10478800FDF76AF90291019005E00B980EA90880DF
:10479800FFE70FB0F0BD0A98406801990160F8E79B
:1047A800012000000220000080B5B0B00A4609913F
:1047B8000AA903230B800EA908900846079206F061
:1047C8006FFBFFE70A9A0BA80EA906F083FBFFE729
:1047D80009990D981E900C981D900B981C9018A87C
:1047E8001CAA00F0A5FDFFE714A818A9FCF7ABF870
:1047F800FFE714A80078C1070029069005D0FFE755
:104808000698012814D0FFE7FEDE17982290169824
:104818002190159820902298139021981290209812
:10482800119014A80078C007002800D18BE0A1E0FF
:1048380014A840781FA908701F98FFF7A5FDC1B2FA
:104848000591FFE708980599FCF70EF8FFE714A80B
:104858000078C007002871D06FE030B080BDFCE759
:104868002798FCF73AF8C0B226A90870FFE726A8EF
:104878000078811F4A1E91410628049104D0FFE761
:104888000498012801D0BFE717E026982BA90870E3
:104898002B98FFF779FDC1B20391FFE708980399B8
:1048A800FBF7E2FFFFE726A80078062863D163E05C
:1048B80011A8FDF712F8FFE7D1E7249800280BD1DB
:1048C800FFE72DA800210170052101702D98089996
:1048D800487001200870EBE725A80078C007002879
:1048E80004D1FFE72EA8002101700BE024980121D4
:1048F80000280290019101D10298019001982EA9F7
:104908000870FFE72EA80078C007002806D0FFE748
:1049180023980899486000200870C9E72FA800214B
:104928000170022101702F980899487001200870C1
:1049380011A8FCF7D2FFFFE78FE790E714A8001D46
:10494800FCF7CBFFF9E70020C1432391249025A968
:1049580008700A98289124A9299123A92A9111A9B4
:1049680028AA00900846009902F0ECFCC0B227A9DA
:10497800087075E7E7E79BE7FDE7D4D4F0B591B099
:10498800169C1D4616460F460B900A900B980C90E5
:104998000DA801800E920F930088062809940895A7
:1049A80007960697059018D0FFE7059881B20A295F
:1049B8000BD0FFE7059881B2144A914215D1FFE761
:1049C8000C9800680121017013E00E980F99169A4F
:1049D800FDF742F8049103900DE00E980F99169A8E
:1049E800FDF73AF8029101900AE00D9810A90880A5
:1049F800FFE711B0F0BD0C98406803990160F8E733
:104A08000C98806801990160F3E7C0460120000016
:104A180080B5BAB00A460B9139A900230B700CA9CE
:104A2800864B0B8016A90A900846099206F038FAB8
:104A3800FFE70C9A13A816A906F04CFAFFE710A88E
:104A480013A97F4A06F000FBFFE70DA810A97D4ACD
:104A580006F0FAFAFFE70B990F9826900E98259022
:104A68000D98249020A824AA00F062FCFFE71CA857
:104A780020A9FBF768FFFFE71CA80078C1070029F9
:104A8800089005D0FFE70898012814D0FFE7FEDE5C
:104A98001F982A901E9829901D9828902A981B9054
:104AA80029981A90289819901CA80078C0070028FF
:104AB80000D1A8E0B2E01CA8407827A90870279880
:104AC800FFF762FCC1B20791FFE70A980799FBF765
:104AD800BDFEFFE71CA80078C007002800D18DE0C4
:104AE8008BE03AB080BDFCE70C992BA830902CA83D
:104AF8003190309A319B19A804F05AF8C0B2069048
:104B0800FFE70698FBF7E9FEC0B22FA90870FFE798
:104B18002FA80078811F4A1E91410628059104D0CC
:104B2800FFE70598012801D0B1E71AE02F9832A9CC
:104B380008703298FFF728FCC1B20491FFE70A9881
:104B48000499FBF783FEFFE72FA80078062866D1B3
:104B580066E039A80021017019A8FCF7BEFEFFE73E
:104B6800C1E72BA80078C007002804D1FFE734A8C4
:104B78000021017004E02CA804F0EFFA039005E08E
:104B880034A80078C00700280DD11EE001200021BC
:104B9800039A012A0291019001D802980190019884
:104BA80034A90870ECE739A8002101702E983790D5
:104BB8002D9836902C98359037980A9AD060369868
:104BC800906035985060117032E038A8002101706B
:104BD8000222027038980A9A50700120107039A881
:104BE80001702CA8FCF779FEFFE739A800210170B5
:104BF80019A8FCF772FEFFE773E774E71CA8001D0D
:104C0800FCF76BFEF9E72BA80021017039A80121F8
:104C180001702CA8402104F08AFA65E7F3E707E061
:104C2800FDE739A8002101702CA8FCF756FE90E793
:104C380039A80078C0070028F3D18AE704300000BB
:104C48000410000003600000F0B58DB0129C1D46F2
:104C580016460F46079006900798089009A8018005
:104C68000A920B930088114988420594049503968B
:104C78000297019006D0FFE7019881B20C4A914251
:104C880005D00BE008980068012101700AE0089837
:104C980040680A990B9A02F0D3FA05E009980CA922
:104CA8000880FFE70DB0F0BDFCE7C046012000001A
:104CB8000360000080B5BAB00A46034609900A911D
:104CC8000CA80721018010A80892079306F0E8F8BD
:104CD800FFE70C9A0DA810A906F0FCF8FFE70A9860
:104CE800002814D0FFE70F9818900E9817900D9889
:104CF80016900A9B13A816A9694A06F01BFAFFE743
:104D080015980F9014980E9013980D90FFE70F9830
:104D18001E900E981D900D981C9019A81CA902228F
:104D280006F092F9FFE71B980F901A980E901998C1
:104D38000D9009990F982C900E982B900D982A9009
:104D480026A82AAA00F0F4FAFFE722A826A9FBF76A
:104D5800FAFDFFE722A80078C1070029069005D0D0
:104D6800FFE70698012813D0FFE7FEDE259830906C
:104D780024982F9023982E90309821902F98209047
:104D88002E981F9022A80078C007002870D083E0D2
:104D980022A840782DA908702D98FFF7F5FAC0B21F
:104DA8000590FFE70598FBF77BFD0BAA5170107083
:104DB800FFE722A80078C007002854D052E00BA8CB
:104DC800017840780490084604993AB080BDF6E727
:104DD8003498FBF782FDC0B233A90870FFE733A807
:104DE8000078811F4A1E91410628039104D0FFE7ED
:104DF8000398012801D0B8E719E0339837A908705B
:104E08003798FFF7C1FAC0B20290FFE70298FBF7A4
:104E180047FD0BAA51701070FFE733A800780628E9
:104E28003BD13BE01FA8FCF758FDFFE7CFE732A8CE
:104E38000078C007002806D0FFE731980BA9487012
:104E480000200870EEE739A80021017002210170E6
:104E580039980BA94870012008701FA8FCF73DFD80
:104E6800FFE7ACE7B3E722A8001DFCF736FDF9E73A
:104E78000020319032A908700C98359131A93691EB
:104E8800359A369B1FA901900846019903F080FBCB
:104E9800C0B234A908709BE7EAE7C3E7FDE7C0465C
:104EA80001500000F0B58DB0129C1D4616460F4605
:104EB800079006900798089009A801800A920B931A
:104EC80000880F49884205940495039602970CD1EF
:104ED800FFE708980068012101700A980B99129A57
:104EE800FCF7BAFD0191009005E009980CA908802B
:104EF800FFE70DB0F0BD0898406800990160F8E739
:104F08000120000010B5B0B013460C46089109A95D
:104F18000A800AA906220A8014A90790084606935F
:104F2800059405F0BDFFFFE70A9A11A814A905F03A
:104F3800D1FFFFE70EA811A9574A06F085F8FFE749
:104F4800099B0BA80EA9062206F0B4F8FFE70899FA
:104F58000D9824900C9823900B9822901EA822AAB2
:104F680000F0E6F9FFE71AA81EA9FBF7ECFCFFE73B
:104F78001AA80078C1070029049005D0FFE7049813
:104F8800012813D0FFE7FEDE1D9828901C98279073
:104F98001B9826902898199027981890269817906B
:104FA8001AA80078C007002865D071E01AA84078D0
:104FB80025A908702598FFF7E7F9C1B20391FFE723
:104FC80007980399FBF750FCFFE71AA80078C00779
:104FD80000284BD049E030B010BDFCE72B98FBF718
:104FE8007CFCC0B22AA90870FFE72AA80078811FB4
:104FF8004A1E91410628029104D0FFE70298012831
:1050080001D0C0E717E02A982DA908702D98FFF75E
:10501800BBF9C1B20191FFE707980199FBF724FC9E
:10502800FFE72AA80078062833D133E017A8FCF751
:1050380054FCFFE7D1E729A80078C007002805D06D
:10504800FFE70020079948600870EFE72FA80021C4
:105058000170022101702F9807994870012008708B
:1050680017A8FCF73AFCFFE7B5E7B6E71AA8001D52
:10507800FCF733FCF9E729A8002101700A992C9064
:105088002C9A17A802F078FFC0B22BA90870A5E7E0
:10509800F1E7CBE7FDE7C04608100000F0B58BB09C
:1050A800109C1D4616460F460590049005980690DC
:1050B80007A8018008920993008809498842039447
:1050C80002950196009705D1FFE70698006801212F
:1050D800017003E007980AA90880FFE70BB0F0BD4C
:1050E8000120000080B5ACB00A46069107A95F4BC5
:1050F8000B800EA905900846049205F0D1FEFFE743
:10510800079A0BA80EA905F0E5FEFFE708A80BA96A
:10511800574A05F099FFFFE706990A981E900998E3
:105128001D9008981C9018A81CAA00F001F9FFE728
:1051380014A818A9FBF707FCFFE714A80078C10713
:105148000029039005D0FFE70398012813D0FFE753
:10515800FEDE179822901698219015982090229894
:105168001390219812902098119014A80078C007E5
:10517800002866D076E014A840781FA908701F9808
:10518800FFF702F9C1B20291FFE705980299FBF710
:105198006BFBFFE714A80078C00700284CD04AE052
:1051A8002CB080BDFCE72698FBF797FBC0B225A979
:1051B8000870FFE725A80078811F4A1E914106283C
:1051C800019104D0FFE70198012801D0C0E717E05A
:1051D800259829A908702998FFF7D6F8C1B2009137
:1051E800FFE705980099FBF73FFBFFE725A8007844
:1051F800062838D138E011A8FCF76FFBFFE7D1E7A4
:1052080023A80078C00700280BD1FFE72BA80021AE
:105218000170022101702B980599487001200870CF
:10522800E9E72498059948600020087011A8FCF760
:1052380054FBFFE7B4E7B5E714A8001DFCF74DFBE6
:10524800F9E723A80021017024910799279024A841
:105258002890279A289B11A802F07EFBC0B226A9A5
:105268000870A0E7EDE7C6E7FDE7C046024000008A
:1052780002200000F0B58FB0149C1D4616460F465C
:105288000990089009980A900BA801800C920D9338
:105298000088134988420794069505960497039059
:1052A80006D0FFE7039881B20E4A914205D00CE080
:1052B8000A980068012101700BE00C980D99149A66
:1052C800FCF7CAFB0291019005E00B980EA9088033
:1052D800FFE70FB0F0BD0A98406801990160F8E750
:1052E800012000000220000089B0014602AA1080B7
:1052F800000C9070907801AA9070029810809078B5
:1053080008AA907001981080907807AA9070089861
:105318001080907806AA90700798108010785378BB
:105328001B021818927812048018009109B070476F
:1053380010B5FFB0B3B013460C463D913C901046F3
:105348003B933A9403F009FF3990FFE739980A38FC
:1053580039990A29389000D25CE338983E903EA9E2
:105368000978891DCAB28A42379100D056E30221D2
:105378003B9805F0D2FC3690FFE7379836990870CD
:1053880003213B9805F0C9FC3590FFE700203599CB
:1053980008703EA8007804213B9A3490104605F026
:1053A800BCFC3390FFE734983399087005213B988B
:1053B80005F0B3FC3290FFE70020329908703B9863
:1053C8008268449242684392026842923FA842A986
:1053D80005F0B2FDFFE741983B9988604098486026
:1053E8003F9808603D98FEF775F8FFE73D993B98B0
:1053F800319105F0E7FB30902F91FFE74DA83199E7
:10540800309A2F9B00F0C1FFFFE74AA84DA9FBF790
:1054180078F9FFE747A84AA9FBF751FAFFE747A839
:105428000078C10700292E9005D0FFE72E980128A3
:105438000AD0FFE7FEDE4898499951905291519859
:105448005299459046911CE047A8407850A90870A9
:105458005098FEF799FFC1B22D91FFE73C982D991E
:10546800FBF7F4F9FFE747A80078C007002800D049
:10547800C6E2C6E27FB033B010BD3B98FCF72DFA08
:10548800F8E73D98FEF74BF8FFE7FE485390FFE733
:105498003D98FDF7BFFF2C9003E03D98FEF71AF802
:1054A8001DE02C98C1070029F7D0FFE75398411E4B
:1054B80001282B9100D7B5E22B98539053990029D6
:1054C8000BDAFFE754A800210170032101705498FA
:1054D8003C9948700120087000E0D9E7CDE7EC4915
:1054E80055A8042201F02FFAFFE73D9955A82A9103
:1054F80005F068FB29902891FFE760A82A99299A66
:10550800289B00F042FFFFE75DA860A9FBF7F9F8C8
:10551800FFE75AA85DA9FBF7D2F9FFE75AA8007878
:10552800C1070029279004D0FFE72798012809D050
:1055380080E75B985C996490659164986599589048
:1055480059911AE05AA8407863A908706398FEF741
:105558001BFFC1B22691FFE73C982699FBF776F925
:10556800FFE75AA80078C007002800D04AE24AE2BC
:1055780055A8FCF7B2F9FFE7B0E73D98FDF7CFFF74
:10558800FFE75998002825902DD14FE266A8002101
:10559800017004E059980328249039D858E266A885
:1055A8000078C00700283BD045E067A800210170BB
:1055B80004E059980228239022D843E267A800788B
:1055C800C0070028E6D1E1E768A80021017004E0DF
:1055D8005998012822900BD82EE268A80078C007B5
:1055E8000028E6D1E1E7589800787F28F0D0EBE76B
:1055F80058984078FF384142484168A90870ECE75C
:1056080058988078401E4142484167A90870D5E7FC
:105618005898C0787F384142484166A90870BEE76B
:1056280069A8002101700221017069983C994870AD
:10563800012008709CE7FFE73D98FDF7EBFE2190FD
:1056480003E03D98FDF746FF04E02198C1070029D3
:10565800F2D1F6E78E496AA8042201F074F9FFE74F
:105668003D996AA8209105F0ADFA1F901E91FFE7B9
:1056780075A820991F9A1E9B00F087FEFFE772A865
:1056880075A9FBF73EF8FFE76FA872A9FBF717F9B2
:10569800FFE76FA80078C10700291D9004D0FFE735
:1056A8001D98012809D0C5E67098719979907A916A
:1056B80079987A996D906E911AE06FA8407878A9D8
:1056C80008707898FEF760FEC1B21C91FFE73C981D
:1056D8001C99FBF7BBF8FFE76FA80078C007002804
:1056E80000D091E191E16AA8FCF7F7F8FFE73FE7FE
:1056F8003D98FDF714FFFFE76E9803281B9000D232
:10570800ACE16D988078001D002100291A9000D026
:10571800AAE11A987B907B997CA803F008FDFFE723
:105728003D98FDF7D7FEFFE77B9800218091819097
:105738008098819906F041F819901891FFE7199817
:10574800829018998391FFE782A805F065FF8691FA
:105758008590FFE785980028179004D0FFE71798F1
:10576800012808D066E63D997CA8169105F02AFA2A
:10577800159014910BE08698879087988490849868
:1057880088907CA8002103F0F0FCFFE7DCE791A8F3
:105798001699159A149B00F0F8FDFFE78EA891A9B9
:1057A800FAF7AFFFFFE78BA88EA9FBF788F8FFE7AA
:1057B8008BA80078C1070029139004D0FFE713983D
:1057C800012809D036E68C988D99959096919598F0
:1057D800969989908A911AE08BA8407894A90870C4
:1057E8009498FEF7D1FDC1B21291FFE73C98129947
:1057F800FBF72CF8FFE78BA80078C007002800D03B
:1058080004E104E17CA8FCF768F8FFE76BE73D9842
:10581800FDF785FEFFE77B98011F0428119100D250
:1058280026E100209890119899909899999A7CA8C7
:1058380005F0FEF910900F91FFE710980F9906F008
:105848008BF89790FFE797987B990A1F04290E9089
:105858000D9200D210E17B980D999A919B909A999C
:105868009B9A7CA805F0E4F90C900B91FFE70C9843
:105878000B99FCF7ADF80A90FFE70E980A99884251
:1058880008D101E020A107003D98FDF723FE0CE0B8
:10589800841E0100ABA80021017004210170AB989F
:1058A8003C9948700120087043E09CA87F21017052
:1058B800FF22427001228270C1703D99A5AA04237B
:1058C80009901046099A00F060FDFFE7A2A8A5A973
:1058D800FAF717FFFFE79FA8A2A9FAF7F0FFFFE77B
:1058E8009FA80078C1070029089004D0FFE708980E
:1058F800012809D09EE5A098A199A990AA91A998F4
:10590800AA999D909E9116E09FA84078A8A9087032
:10591800A898FEF739FDC1B20791FFE73C980799AF
:10592800FAF794FFFFE79FA80078C00700286FD117
:105938006FE0FFE766E73D98FDF7F1FDFFE77CA81C
:10594800022103F0CFFA0690FFE7069801787CA8B9
:1059580003220591114603F0C5FA0490FFE7049865
:105968000178ACAA059B137051707CA8042103F040
:10597800B9FA0390FFE7039801787CA80522029101
:10598800114603F0AFFA0190FFE701980178ADAA3C
:10599800029B13705170ACA8114600F0A3FF009051
:1059A800FFE70098C10700290BD0FFE7AEA8002148
:1059B800017002210170AE983C994870012008706E
:1059C800B8E7AFA87CA9062201F058FCFFE7B19818
:1059D8003C99C860B0988860AF984860002008700B
:1059E8007CA8FBF77AFFFFE76AA8FBF776FFFFE7DB
:1059F80055A8FBF772FFFFE73B98FBF76EFF39E509
:105A08003BE5FDE7B4E5FDE76DE6FDE7FAE6FDE712
:105A18008FE7FDE724480AF08BFCFEDE21480AF0F8
:105A280087FCFEDE1E480AF083FCFEDE14480021D7
:105A3800259A0AF09BFCFEDE12480121229A0AF000
:105A480095FCFEDE10480221239A0AF08FFCFEDE48
:105A58000E480321249A0AF089FCFEDE0C48022134
:105A68001B9A0AF083FCFEDE0C480AF061FCFEDE9D
:105A780009480AF05DFCFEDE06480AF059FCFEDE25
:105A8800881E0100981E0100A81E0100B81E010012
:105A9800C81E0100081F0100F01E0100D81E0100E9
:105AA800641E01004C1E0100141E010080B586B062
:105AB8000146029002980191FDF754FDFFE703A803
:105AC800FAF7D4FBFFE70298FDF771FDFFE704A89A
